{
  "contractName": "VotingContract",
  "abi": [
    {
      "inputs": [],
      "payable": false,
      "stateMutability": "nonpayable",
      "type": "constructor"
    },
    {
      "anonymous": false,
      "inputs": [
        {
          "indexed": true,
          "internalType": "uint256",
          "name": "_candidateId",
          "type": "uint256"
        }
      ],
      "name": "votedEvent",
      "type": "event"
    },
    {
      "constant": true,
      "inputs": [
        {
          "internalType": "address",
          "name": "",
          "type": "address"
        }
      ],
      "name": "adminAccountIds",
      "outputs": [
        {
          "internalType": "bool",
          "name": "",
          "type": "bool"
        }
      ],
      "payable": false,
      "stateMutability": "view",
      "type": "function"
    },
    {
      "constant": true,
      "inputs": [
        {
          "internalType": "uint256",
          "name": "",
          "type": "uint256"
        }
      ],
      "name": "candidates",
      "outputs": [
        {
          "internalType": "uint256",
          "name": "id",
          "type": "uint256"
        },
        {
          "internalType": "string",
          "name": "name",
          "type": "string"
        },
        {
          "internalType": "uint256",
          "name": "voteCount",
          "type": "uint256"
        }
      ],
      "payable": false,
      "stateMutability": "view",
      "type": "function"
    },
    {
      "constant": true,
      "inputs": [],
      "name": "candidatesCount",
      "outputs": [
        {
          "internalType": "uint256",
          "name": "",
          "type": "uint256"
        }
      ],
      "payable": false,
      "stateMutability": "view",
      "type": "function"
    },
    {
      "constant": true,
      "inputs": [
        {
          "internalType": "uint256",
          "name": "",
          "type": "uint256"
        }
      ],
      "name": "uniqueVoterIds",
      "outputs": [
        {
          "internalType": "bool",
          "name": "",
          "type": "bool"
        }
      ],
      "payable": false,
      "stateMutability": "view",
      "type": "function"
    },
    {
      "constant": true,
      "inputs": [
        {
          "internalType": "uint256",
          "name": "",
          "type": "uint256"
        }
      ],
      "name": "voterAddresses",
      "outputs": [
        {
          "internalType": "address",
          "name": "",
          "type": "address"
        }
      ],
      "payable": false,
      "stateMutability": "view",
      "type": "function"
    },
    {
      "constant": true,
      "inputs": [
        {
          "internalType": "address",
          "name": "",
          "type": "address"
        }
      ],
      "name": "voters",
      "outputs": [
        {
          "internalType": "bool",
          "name": "",
          "type": "bool"
        }
      ],
      "payable": false,
      "stateMutability": "view",
      "type": "function"
    },
    {
      "constant": true,
      "inputs": [],
      "name": "votingEndTime",
      "outputs": [
        {
          "internalType": "uint256",
          "name": "",
          "type": "uint256"
        }
      ],
      "payable": false,
      "stateMutability": "view",
      "type": "function"
    },
    {
      "constant": false,
      "inputs": [
        {
          "internalType": "string",
          "name": "_name",
          "type": "string"
        }
      ],
      "name": "addCandidate",
      "outputs": [],
      "payable": false,
      "stateMutability": "nonpayable",
      "type": "function"
    },
    {
      "constant": false,
      "inputs": [
        {
          "internalType": "uint256",
          "name": "_candidateId",
          "type": "uint256"
        }
      ],
      "name": "vote",
      "outputs": [],
      "payable": false,
      "stateMutability": "nonpayable",
      "type": "function"
    },
    {
      "constant": true,
      "inputs": [],
      "name": "getCandidates",
      "outputs": [
        {
          "components": [
            {
              "internalType": "uint256",
              "name": "id",
              "type": "uint256"
            },
            {
              "internalType": "string",
              "name": "name",
              "type": "string"
            },
            {
              "internalType": "uint256",
              "name": "voteCount",
              "type": "uint256"
            }
          ],
          "internalType": "struct VotingContract.Candidate[]",
          "name": "",
          "type": "tuple[]"
        }
      ],
      "payable": false,
      "stateMutability": "view",
      "type": "function"
    },
    {
      "constant": true,
      "inputs": [],
      "name": "getVotingEndTime",
      "outputs": [
        {
          "internalType": "uint256",
          "name": "",
          "type": "uint256"
        }
      ],
      "payable": false,
      "stateMutability": "view",
      "type": "function"
    },
    {
      "constant": false,
      "inputs": [
        {
          "internalType": "uint256",
          "name": "newTimeStamp",
          "type": "uint256"
        }
      ],
      "name": "updateVotingEndTime",
      "outputs": [],
      "payable": false,
      "stateMutability": "nonpayable",
      "type": "function"
    },
    {
      "constant": true,
      "inputs": [
        {
          "internalType": "uint256",
          "name": "voterId",
          "type": "uint256"
        }
      ],
      "name": "checkIfVoterIdExists",
      "outputs": [
        {
          "internalType": "bool",
          "name": "",
          "type": "bool"
        }
      ],
      "payable": false,
      "stateMutability": "view",
      "type": "function"
    },
    {
      "constant": true,
      "inputs": [
        {
          "internalType": "address",
          "name": "adminAccountId",
          "type": "address"
        }
      ],
      "name": "checkIfAdminUser",
      "outputs": [
        {
          "internalType": "bool",
          "name": "",
          "type": "bool"
        }
      ],
      "payable": false,
      "stateMutability": "view",
      "type": "function"
    },
    {
      "constant": false,
      "inputs": [
        {
          "internalType": "uint256",
          "name": "newTimeStamp",
          "type": "uint256"
        }
      ],
      "name": "startNewPoll",
      "outputs": [],
      "payable": false,
      "stateMutability": "nonpayable",
      "type": "function"
    },
    {
      "constant": true,
      "inputs": [],
      "name": "getWinner",
      "outputs": [
        {
          "internalType": "string",
          "name": "",
          "type": "string"
        }
      ],
      "payable": false,
      "stateMutability": "view",
      "type": "function"
    }
  ],
  "bytecode": "0x6080604052600060055534801561001557600080fd5b507f7754e603b51d4c4a3aba7ace3043385dc37d93dbb4164d6e123ba69433d7f0a7805460ff1990811660019081179092557f9cc675681de89305fabf31ac3c9000ce0f98b9f23d3faced66912fd8b090cdd080548216831790557fbcc70fe71ea71c8815171e31fc0f01260bfa79ecedf097c8128c2820ec7441f8805482168317905560036020527f9d40ef5f4c84e1e57b2400f317208a753cd2259d8c96eb339cc77f2bff607ad98054821683178216831790557f1e5cc82725514d7bd4fc9f83877c7437565a8a38e76672d40db754274fa33e4b80548216831790557376d81132eb074d4d2277fb10fdf14177fbfa73416000527f21d65e17b88579fb767f2efe7d03af49af52cba783e431ae005fd6d829ce78418054909116909117905542600655610f1a8061014a6000396000f3fe608060405234801561001057600080fd5b50600436106101005760003560e01c806358c42a3e11610097578063a3ec138d11610066578063a3ec138d1461020b578063b1bf87b01461021e578063b8b31bfa14610226578063dd0e23731461023957610100565b806358c42a3e146101bd5780637987af15146101d0578063860b2f57146101e35780638e7ea5b2146101f657610100565b80632d35a8a2116100d35780632d35a8a21461016d5780633477ee2e146101755780633e54813514610197578063462e91ec146101aa57610100565b80630121b93f1461010557806306a49fce1461011a5780630e8d6189146101385780631ea736e014610158575b600080fd5b610118610113366004610a61565b610259565b005b610122610350565b60405161012f9190610d29565b60405180910390f35b61014b610146366004610a06565b61049b565b60405161012f9190610d3a565b6101606104b0565b60405161012f9190610db9565b6101606104b6565b610188610183366004610a61565b6104bc565b60405161012f93929190610dc7565b6101186101a5366004610a61565b610567565b6101186101b8366004610a2c565b61063a565b6101186101cb366004610a61565b6106cb565b61014b6101de366004610a61565b6106ff565b61014b6101f1366004610a06565b610714565b6101fe610732565b60405161012f9190610d48565b61014b610219366004610a06565b61083f565b610160610854565b61014b610234366004610a61565b61085a565b61024c610247366004610a61565b61086f565b60405161012f9190610d1b565b60065442106102835760405162461bcd60e51b815260040161027a90610d89565b60405180910390fd5b3360009081526020819052604090205460ff16156102b35760405162461bcd60e51b815260040161027a90610da9565b33600081815260208181526040808320805460ff19166001908117909155600480548083019091557f8a35acfbc15ff81a39ae7d344fd709f28e8600b4aa8c65c6b64bfe7fe36bd19b0180546001600160a01b0319169095179094558483526002918290528083209091018054909301909255905182917ffff3c900d938d21d0990d786e819f29b8d05c1ef587b462b939609625b684b1691a250565b60608060055460405190808252806020026020018201604052801561038f57816020015b61037c610896565b8152602001906001900390816103745790505b50905060015b6005548111610494576002600082815260200190815260200160002060405180606001604052908160008201548152602001600182018054600181600116156101000203166002900480601f01602080910402602001604051908101604052809291908181526020018280546001816001161561010002031660029004801561045f5780601f106104345761010080835404028352916020019161045f565b820191906000526020600020905b81548152906001019060200180831161044257829003601f168201915b5050505050815260200160028201548152505082600183038151811061048157fe5b6020908102919091010152600101610395565b5090505b90565b60036020526000908152604090205460ff1681565b60065481565b60055481565b60026020818152600092835260409283902080546001808301805487519281161561010002600019011695909504601f81018590048502820185019096528581529094919390929091908301828280156105575780601f1061052c57610100808354040283529160200191610557565b820191906000526020600020905b81548152906001019060200180831161053a57829003601f168201915b5050505050908060020154905083565b3360009081526003602052604090205460ff166105965760405162461bcd60e51b815260040161027a90610d69565b60015b60055481116105d3576000818152600260205260408120818155906105c160018301826108b7565b50600060029190910155600101610599565b50600060058190555b600454811015610634576000806000600484815481106105f857fe5b6000918252602080832091909101546001600160a01b031683528201929092526040019020805460ff19169115159190911790556001016105dc565b50600655565b3360009081526003602052604090205460ff166106695760405162461bcd60e51b815260040161027a90610d99565b60058054600190810191829055604080516060810182528381526020808201868152600083850181905295865260028252929094208151815591518051919492936106ba93908501929101906108fe565b506040820151816002015590505050565b3360009081526003602052604090205460ff166106fa5760405162461bcd60e51b815260040161027a90610d59565b600655565b60009081526001602052604090205460ff1690565b6001600160a01b031660009081526003602052604090205460ff1690565b60606000600554116107565760405162461bcd60e51b815260040161027a90610d79565b60008060015b60055481116107a05760008181526002602081905260409091200154831015610798576000818152600260208190526040909120015492509050805b60010161075c565b506000818152600260208181526040928390206001908101805485519281161561010002600019011693909304601f810183900483028201830190945283815292908301828280156108335780601f1061080857610100808354040283529160200191610833565b820191906000526020600020905b81548152906001019060200180831161081657829003601f168201915b50505050509250505090565b60006020819052908152604090205460ff1681565b60065490565b60016020526000908152604090205460ff1681565b6004818154811061087c57fe5b6000918252602090912001546001600160a01b0316905081565b60405180606001604052806000815260200160608152602001600081525090565b50805460018160011615610100020316600290046000825580601f106108dd57506108fb565b601f0160209004906000526020600020908101906108fb919061097c565b50565b828054600181600116156101000203166002900490600052602060002090601f016020900481019282601f1061093f57805160ff191683800117855561096c565b8280016001018555821561096c579182015b8281111561096c578251825591602001919060010190610951565b5061097892915061097c565b5090565b61049891905b808211156109785760008155600101610982565b80356109a181610eba565b92915050565b600082601f8301126109b857600080fd5b81356109cb6109c682610e1d565b610df6565b915080825260208301602083018583830111156109e757600080fd5b6109f2838284610e74565b50505092915050565b80356109a181610ece565b600060208284031215610a1857600080fd5b6000610a248484610996565b949350505050565b600060208284031215610a3e57600080fd5b813567ffffffffffffffff811115610a5557600080fd5b610a24848285016109a7565b600060208284031215610a7357600080fd5b6000610a2484846109fb565b6000610a8b8383610cc9565b9392505050565b610a9b81610e58565b82525050565b6000610aac82610e4b565b610ab68185610e4f565b935083602082028501610ac885610e45565b8060005b85811015610b025784840389528151610ae58582610a7f565b9450610af083610e45565b60209a909a0199925050600101610acc565b5091979650505050505050565b610a9b81610e63565b6000610b2382610e4b565b610b2d8185610e4f565b9350610b3d818560208601610e80565b610b4681610eb0565b9093019392505050565b6000610b5d602b83610e4f565b7f4f6e6c792061646d696e206163636f756e74732063616e20757064617465207481526a686520656e642074696d6560a81b602082015260400192915050565b6000610baa602883610e4f565b7f4f6e6c792061646d696e206163636f756e74732063616e2073746172742061208152671b995dc81c1bdb1b60c21b602082015260400192915050565b6000610bf4601783610e4f565b7f4e6f2063616e6469646174657320617661696c61626c65000000000000000000815260200192915050565b6000610c2d601083610e4f565b6f159bdd1a5b99c81a185cc8195b99195960821b815260200192915050565b6000610c59602983610e4f565b7f4f6e6c792061646d696e206163636f756e74732063616e20616464207468652081526863616e64696461746560b81b602082015260400192915050565b6000610ca4601683610e4f565b75165bdd481a185d9948185b1c9958591e481d9bdd195960521b815260200192915050565b80516000906060840190610cdd8582610d12565b5060208301518482036020860152610cf58282610b18565b9150506040830151610d0a6040860182610d12565b509392505050565b610a9b81610498565b602081016109a18284610a92565b60208082528101610a8b8184610aa1565b602081016109a18284610b0f565b60208082528101610a8b8184610b18565b602080825281016109a181610b50565b602080825281016109a181610b9d565b602080825281016109a181610be7565b602080825281016109a181610c20565b602080825281016109a181610c4c565b602080825281016109a181610c97565b602081016109a18284610d12565b60608101610dd58286610d12565b8181036020830152610de78185610b18565b9050610a246040830184610d12565b60405181810167ffffffffffffffff81118282101715610e1557600080fd5b604052919050565b600067ffffffffffffffff821115610e3457600080fd5b506020601f91909101601f19160190565b60200190565b5190565b90815260200190565b60006109a182610e68565b151590565b6001600160a01b031690565b82818337506000910152565b60005b83811015610e9b578181015183820152602001610e83565b83811115610eaa576000848401525b50505050565b601f01601f191690565b610ec381610e58565b81146108fb57600080fd5b610ec38161049856fea365627a7a7231582033940ec0f01de549b8765fda20617dc9fe86fd0b633dd29f4eb76f93f55e682d6c6578706572696d656e74616cf564736f6c63430005100040",
  "source": "// SPDX-License-Identifier: UNLICENCED\npragma solidity >=0.4.22 <0.9.0;\npragma experimental ABIEncoderV2;\n\ncontract VotingContract {\n    \n    struct Candidate {\n        uint id;\n        string name;\n        uint voteCount;\n    }\n\n    mapping(address => bool) public voters;\n    mapping(uint => bool) public uniqueVoterIds;\n    mapping(uint => Candidate) public candidates;\n    mapping(address => bool) public adminAccountIds;\n    address[] public voterAddresses;\n    uint public candidatesCount=0;\n    uint public votingEndTime;\n\n    event votedEvent (\n        uint indexed _candidateId\n    );\n\n    constructor () public {\n        // Initialize unique voter IDs\n        uniqueVoterIds[123] = true;\n        uniqueVoterIds[456] = true;\n        uniqueVoterIds[789] = true;\n\n        // Initialize admin account IDs\n        adminAccountIds[address(0xAe1DdF39a90FeeAc8708739aacCa6e8781daC6c6)] = true;\n        adminAccountIds[address(0xAe1DdF39a90FeeAc8708739aacCa6e8781daC6c6)] = true;\n        adminAccountIds[address(0x4b3527ad07fA1Ab3E7bFe83ec18cC6cB57d6c908)] = true;\n        adminAccountIds[address(0x76D81132eb074d4d2277fB10FdF14177fBFA7341)] = true;\n\n        votingEndTime = block.timestamp;\n    }\n\n    function addCandidate(string memory _name) public {\n        require(adminAccountIds[msg.sender], \"Only admin accounts can add the candidate\"); // Check if msg.sender is an admin\n        candidatesCount++;\n        candidates[candidatesCount] = Candidate(candidatesCount, _name, 0);\n    }\n\n    function vote (uint _candidateId) public {\n        require(block.timestamp < votingEndTime, \"Voting has ended\");\n        require(!voters[msg.sender], \"You have already voted\");\n        voters[msg.sender] = true;\n        voterAddresses.push(msg.sender);\n        candidates[_candidateId].voteCount++;\n        emit votedEvent(_candidateId);\n    }\n\n    function getCandidates() public view returns (Candidate[] memory) {\n        Candidate[] memory result = new Candidate[](candidatesCount);\n\n        for (uint i = 1; i <= candidatesCount; i++) {\n            result[i - 1] = candidates[i];\n        }\n\n        return result;\n    }\n\n    function getVotingEndTime() public view returns (uint) {\n        return votingEndTime;\n    }\n\n    function updateVotingEndTime(uint newTimeStamp) public {\n        require(adminAccountIds[msg.sender], \"Only admin accounts can update the end time\"); // Check if msg.sender is an admin\n        votingEndTime = newTimeStamp;\n    }\n\n    function checkIfVoterIdExists(uint voterId) public view returns (bool) {\n        return uniqueVoterIds[voterId];\n    }\n\n    // Updated function to check if an admin account exists\n    function checkIfAdminUser(address adminAccountId) public view returns (bool) {\n        return adminAccountIds[adminAccountId];\n    } \n\n    function startNewPoll(uint newTimeStamp) public {\n        require(adminAccountIds[msg.sender], \"Only admin accounts can start a new poll\");\n\n        // Clear candidates\n        for (uint i = 1; i <= candidatesCount; i++) {\n            delete candidates[i];\n        }\n        candidatesCount = 0;\n\n        // Reset voters\n        for (uint i = 0; i < voterAddresses.length; i++) {\n            voters[voterAddresses[i]] = false;\n        }\n\n        votingEndTime = newTimeStamp;\n    }\n\n    function getWinner() public view returns (string memory) {\n        require(candidatesCount > 0, \"No candidates available\");\n\n        uint maxVotes = 0;\n        uint winningCandidateId;\n\n        for (uint i = 1; i <= candidatesCount; i++) {\n            if (candidates[i].voteCount > maxVotes) {\n                maxVotes = candidates[i].voteCount;\n                winningCandidateId = i;\n            }\n        }\n\n        return candidates[winningCandidateId].name;\n    }\n\n\n}\n\n/*\npragma solidity >=0.4.22 <0.9.0;\npragma experimental ABIEncoderV2;\n\ncontract VotingContract {\n    \n    struct Candidate {\n        uint id;\n        string name;\n        uint voteCount;\n    }\n\n    struct Voter {\n        uint voterId;\n        string biometricData;\n        bool hasVoted;\n    }\n\n    mapping(uint => Voter) public voters;\n    mapping(uint => bool) public uniqueVoterIds;\n    mapping(uint => Candidate) public candidates;\n    mapping(address => bool) public adminAccountIds;\n    uint public candidatesCount = 0;\n    uint public votingEndTime;\n\n    event votedEvent (\n        uint indexed _candidateId\n    );\n\n    constructor () public {\n        // Initialize admin account IDs\n        adminAccountIds[address(0xAe1DdF39a90FeeAc8708739aacCa6e8781daC6c6)] = true;\n        adminAccountIds[address(0xAe1DdF39a90FeeAc8708739aacCa6e8781daC6c6)] = true;\n        adminAccountIds[address(0x4b3527ad07fA1Ab3E7bFe83ec18cC6cB57d6c908)] = true;\n    }\n\n    function addCandidate(string memory _name) public {\n        require(adminAccountIds[msg.sender], \"Only admin accounts can add the candidate\"); // Check if msg.sender is an admin\n        candidatesCount++;\n        candidates[candidatesCount] = Candidate(candidatesCount, _name, 0);\n        votingEndTime = block.timestamp;\n    }\n\n    function registerVoter(uint _voterId, string memory _biometricData) public {\n        require(adminAccountIds[msg.sender], \"Only admin accounts can register voters\");\n        require(!uniqueVoterIds[_voterId], \"Voter ID already exists\");\n        uniqueVoterIds[_voterId] = true;\n        voters[_voterId] = Voter(_voterId, _biometricData, false);\n    }\n\n    function authenticateVoter(uint _voterId, string memory _biometricData) public view returns (bool) {\n        Voter memory voter = voters[_voterId];\n        return (voter.voterId == _voterId && keccak256(bytes(voter.biometricData)) == keccak256(bytes(_biometricData)));\n    }\n\n    function vote(uint _candidateId, uint _voterId, string memory _biometricData) public {\n        require(block.timestamp < votingEndTime, \"Voting has ended\");\n        require(!voters[_voterId].hasVoted, \"You have already voted\");\n        require(authenticateVoter(_voterId, _biometricData), \"Voter authentication failed\");\n\n        voters[_voterId].hasVoted = true;\n        candidates[_candidateId].voteCount++;\n        emit votedEvent(_candidateId);\n    }\n\n    function getCandidates() public view returns (Candidate[] memory) {\n        Candidate[] memory result = new Candidate[](candidatesCount);\n\n        for (uint i = 1; i <= candidatesCount; i++) {\n            result[i - 1] = candidates[i];\n        }\n\n        return result;\n    }\n\n    function getVotingEndTime() public view returns (uint) {\n        return votingEndTime;\n    }\n\n    function updateVotingEndTime(uint newTimeStamp) public {\n        require(adminAccountIds[msg.sender], \"Only admin accounts can update the end time\"); // Check if msg.sender is an admin\n        votingEndTime = newTimeStamp;\n    }\n\n    function checkIfVoterIdExists(uint _voterId) public view returns (bool) {\n        return uniqueVoterIds[_voterId];\n    }\n\n    // Updated function to check if an admin account exists\n    function checkIfAdminUser(address adminAccountId) public view returns (bool) {\n        return adminAccountIds[adminAccountId];\n    }\n\n    function getVoterInfo(uint _voterId) public view returns (uint, string memory, bool) {\n        Voter memory voter = voters[_voterId];\n        return (voter.voterId, voter.biometricData, voter.hasVoted);\n    }\n}\n*/\n\n",
  "sourcePath": "/Users/sumanthtalluri/ASU/Classes/Blockchain/Blockchain-Project/src/contracts/VotingContract.sol",
  "compiler": {
    "name": "solc",
    "version": "0.5.16+commit.9c3226ce.Emscripten.clang"
  },
  "schemaVersion": "3.4.16",
  "updatedAt": "2023-11-26T09:55:30.863Z",
  "networkType": "ethereum",
  "devdoc": {
    "methods": {}
  },
  "userdoc": {
    "methods": {}
  }
}