{
  "contractName": "VotingContract",
  "abi": [
    {
      "inputs": [],
      "payable": false,
      "stateMutability": "nonpayable",
      "type": "constructor"
    },
    {
      "anonymous": false,
      "inputs": [
        {
          "indexed": true,
          "internalType": "uint256",
          "name": "_candidateId",
          "type": "uint256"
        }
      ],
      "name": "votedEvent",
      "type": "event"
    },
    {
      "constant": true,
      "inputs": [
        {
          "internalType": "uint256",
          "name": "",
          "type": "uint256"
        }
      ],
      "name": "candidates",
      "outputs": [
        {
          "internalType": "uint256",
          "name": "id",
          "type": "uint256"
        },
        {
          "internalType": "string",
          "name": "name",
          "type": "string"
        },
        {
          "internalType": "uint256",
          "name": "voteCount",
          "type": "uint256"
        }
      ],
      "payable": false,
      "stateMutability": "view",
      "type": "function"
    },
    {
      "constant": true,
      "inputs": [],
      "name": "candidatesCount",
      "outputs": [
        {
          "internalType": "uint256",
          "name": "",
          "type": "uint256"
        }
      ],
      "payable": false,
      "stateMutability": "view",
      "type": "function"
    },
    {
      "constant": true,
      "inputs": [],
      "name": "owner",
      "outputs": [
        {
          "internalType": "address",
          "name": "",
          "type": "address"
        }
      ],
      "payable": false,
      "stateMutability": "view",
      "type": "function"
    },
    {
      "constant": true,
      "inputs": [
        {
          "internalType": "address",
          "name": "",
          "type": "address"
        }
      ],
      "name": "voters",
      "outputs": [
        {
          "internalType": "bool",
          "name": "",
          "type": "bool"
        }
      ],
      "payable": false,
      "stateMutability": "view",
      "type": "function"
    },
    {
      "constant": false,
      "inputs": [
        {
          "internalType": "string",
          "name": "_name",
          "type": "string"
        }
      ],
      "name": "addCandidate",
      "outputs": [],
      "payable": false,
      "stateMutability": "nonpayable",
      "type": "function"
    },
    {
      "constant": false,
      "inputs": [
        {
          "internalType": "uint256",
          "name": "_candidateId",
          "type": "uint256"
        }
      ],
      "name": "vote",
      "outputs": [],
      "payable": false,
      "stateMutability": "nonpayable",
      "type": "function"
    },
    {
      "constant": true,
      "inputs": [],
      "name": "getCandidates",
      "outputs": [
        {
          "components": [
            {
              "internalType": "uint256",
              "name": "id",
              "type": "uint256"
            },
            {
              "internalType": "string",
              "name": "name",
              "type": "string"
            },
            {
              "internalType": "uint256",
              "name": "voteCount",
              "type": "uint256"
            }
          ],
          "internalType": "struct VotingContract.Candidate[]",
          "name": "",
          "type": "tuple[]"
        }
      ],
      "payable": false,
      "stateMutability": "view",
      "type": "function"
    }
  ],
  "bytecode": "0x6080604052600060025534801561001557600080fd5b50600380546001600160a01b0319163317905560408051808201909152600e81526d53616d61727468204768616e746560901b602082015261005f906001600160e01b0361009a16565b60408051808201909152600d81526c25b0b734b9b4359025bab6b0b960991b6020820152610095906001600160e01b0361009a16565b6101ad565b6003546001600160a01b031633146100b157600080fd5b600280546001908101918290556040805160608101825283815260208082018681526000838501819052958652848252929094208151815591518051919492936101019390850192910190610112565b506040820151816002015590505050565b828054600181600116156101000203166002900490600052602060002090601f016020900481019282601f1061015357805160ff1916838001178555610180565b82800160010185558215610180579182015b82811115610180578251825591602001919060010190610165565b5061018c929150610190565b5090565b6101aa91905b8082111561018c5760008155600101610196565b90565b610867806101bc6000396000f3fe608060405234801561001057600080fd5b506004361061007d5760003560e01c80633477ee2e1161005b5780633477ee2e146100ca578063462e91ec146100ec5780638da5cb5b146100ff578063a3ec138d146101145761007d565b80630121b93f1461008257806306a49fce146100975780632d35a8a2146100b5575b600080fd5b610095610090366004610595565b610134565b005b61009f610190565b6040516100ac91906106e4565b60405180910390f35b6100bd6102c3565b6040516100ac9190610703565b6100dd6100d8366004610595565b6102c9565b6040516100ac93929190610711565b6100956100fa366004610560565b610375565b6101076103ed565b6040516100ac91906106d6565b61012761012236600461053a565b6103fc565b6040516100ac91906106f5565b33600090815260208181526040808320805460ff191660019081179091558484529182905280832060020180549092019091555182917ffff3c900d938d21d0990d786e819f29b8d05c1ef587b462b939609625b684b1691a250565b6060806002546040519080825280602002602001820160405280156101cf57816020015b6101bc610411565b8152602001906001900390816101b45790505b50905060015b60025481116102bc5760008181526001602081815260409283902083516060810185528154815281840180548651600296821615610100026000190190911695909504601f810185900485028601850190965285855290949193858401939092908301828280156102875780601f1061025c57610100808354040283529160200191610287565b820191906000526020600020905b81548152906001019060200180831161026a57829003601f168201915b505050505081526020016002820154815250508260018303815181106102a957fe5b60209081029190910101526001016101d5565b5090505b90565b60025481565b600160208181526000928352604092839020805481840180548651600296821615610100026000190190911695909504601f810185900485028601850190965285855290949193929091908301828280156103655780601f1061033a57610100808354040283529160200191610365565b820191906000526020600020905b81548152906001019060200180831161034857829003601f168201915b5050505050908060020154905083565b6003546001600160a01b0316331461038c57600080fd5b600280546001908101918290556040805160608101825283815260208082018681526000838501819052958652848252929094208151815591518051919492936103dc9390850192910190610432565b506040820151816002015590505050565b6003546001600160a01b031681565b60006020819052908152604090205460ff1681565b60405180606001604052806000815260200160608152602001600081525090565b828054600181600116156101000203166002900490600052602060002090601f016020900481019282601f1061047357805160ff19168380011785556104a0565b828001600101855582156104a0579182015b828111156104a0578251825591602001919060010190610485565b506104ac9291506104b0565b5090565b6102c091905b808211156104ac57600081556001016104b6565b80356104d581610804565b92915050565b600082601f8301126104ec57600080fd5b81356104ff6104fa82610767565b610740565b9150808252602083016020830185838301111561051b57600080fd5b6105268382846107be565b50505092915050565b80356104d58161081b565b60006020828403121561054c57600080fd5b600061055884846104ca565b949350505050565b60006020828403121561057257600080fd5b813567ffffffffffffffff81111561058957600080fd5b610558848285016104db565b6000602082840312156105a757600080fd5b6000610558848461052f565b60006105bf8383610684565b9392505050565b6105cf816107a2565b82525050565b60006105e082610795565b6105ea8185610799565b9350836020820285016105fc8561078f565b8060005b85811015610636578484038952815161061985826105b3565b94506106248361078f565b60209a909a0199925050600101610600565b5091979650505050505050565b6105cf816107ad565b600061065782610795565b6106618185610799565b93506106718185602086016107ca565b61067a816107fa565b9093019392505050565b8051600090606084019061069885826106cd565b50602083015184820360208601526106b0828261064c565b91505060408301516106c560408601826106cd565b509392505050565b6105cf816102c0565b602081016104d582846105c6565b602080825281016105bf81846105d5565b602081016104d58284610643565b602081016104d582846106cd565b6060810161071f82866106cd565b8181036020830152610731818561064c565b905061055860408301846106cd565b60405181810167ffffffffffffffff8111828210171561075f57600080fd5b604052919050565b600067ffffffffffffffff82111561077e57600080fd5b506020601f91909101601f19160190565b60200190565b5190565b90815260200190565b60006104d5826107b2565b151590565b6001600160a01b031690565b82818337506000910152565b60005b838110156107e55781810151838201526020016107cd565b838111156107f4576000848401525b50505050565b601f01601f191690565b61080d816107a2565b811461081857600080fd5b50565b61080d816102c056fea365627a7a7231582057d432fbff984e83edba94fe77a7c80d2ffe4bbfe3df9cfa62b6186a0f0816586c6578706572696d656e74616cf564736f6c63430005100040",
  "source": "// SPDX-License-Identifier: UNLICENCED\npragma solidity >=0.4.22 <0.9.0;\npragma experimental ABIEncoderV2;\n\ncontract VotingContract {\n    \n    struct Candidate {\n        uint id;\n        string name;\n        uint voteCount;\n    }\n\n    mapping(address => bool) public voters;\n\n    mapping(uint => Candidate) public candidates;\n    uint public candidatesCount=0;\n\n    event votedEvent (\n        uint indexed _candidateId\n    );\n\n    address public owner;\n    constructor () public {\n        owner = msg.sender;\n        addCandidate(\"Samarth Ghante\");\n        addCandidate(\"Kanishk Kumar\");\n    }\n\n    function addCandidate(string memory _name) public {\n        require(msg.sender == owner);\n        candidatesCount++;\n        candidates[candidatesCount] = Candidate(candidatesCount, _name, 0);\n    }\n\n    function vote (uint _candidateId) public {\n        voters[msg.sender] = true;\n        candidates[_candidateId].voteCount++;\n        emit votedEvent(_candidateId);\n    }\n\n    function getCandidates() public view returns (Candidate[] memory) {\n        Candidate[] memory result = new Candidate[](candidatesCount);\n\n        for (uint i = 1; i <= candidatesCount; i++) {\n            result[i - 1] = candidates[i];\n        }\n\n        return result;\n    }\n}\n",
  "sourcePath": "/Users/sumanthtalluri/ASU/Classes/Blockchain/Blockchain-Project/src/contracts/VotingContract.sol",
  "compiler": {
    "name": "solc",
    "version": "0.5.16+commit.9c3226ce.Emscripten.clang"
  },
  "schemaVersion": "3.4.16",
  "updatedAt": "2023-11-25T21:29:30.122Z",
  "networkType": "ethereum",
  "devdoc": {
    "methods": {}
  },
  "userdoc": {
    "methods": {}
  }
}